{
  "contractName": "MyNFT",
  "abi": [
    {
      "inputs": [],
      "stateMutability": "nonpayable",
      "type": "constructor"
    },
    {
      "anonymous": false,
      "inputs": [
        {
          "indexed": true,
          "internalType": "address",
          "name": "account",
          "type": "address"
        },
        {
          "indexed": true,
          "internalType": "address",
          "name": "operator",
          "type": "address"
        },
        {
          "indexed": false,
          "internalType": "bool",
          "name": "approved",
          "type": "bool"
        }
      ],
      "name": "ApprovalForAll",
      "type": "event"
    },
    {
      "anonymous": false,
      "inputs": [
        {
          "indexed": true,
          "internalType": "address",
          "name": "previousOwner",
          "type": "address"
        },
        {
          "indexed": true,
          "internalType": "address",
          "name": "newOwner",
          "type": "address"
        }
      ],
      "name": "OwnershipTransferred",
      "type": "event"
    },
    {
      "anonymous": false,
      "inputs": [
        {
          "indexed": true,
          "internalType": "address",
          "name": "operator",
          "type": "address"
        },
        {
          "indexed": true,
          "internalType": "address",
          "name": "from",
          "type": "address"
        },
        {
          "indexed": true,
          "internalType": "address",
          "name": "to",
          "type": "address"
        },
        {
          "indexed": false,
          "internalType": "uint256[]",
          "name": "ids",
          "type": "uint256[]"
        },
        {
          "indexed": false,
          "internalType": "uint256[]",
          "name": "values",
          "type": "uint256[]"
        }
      ],
      "name": "TransferBatch",
      "type": "event"
    },
    {
      "anonymous": false,
      "inputs": [
        {
          "indexed": true,
          "internalType": "address",
          "name": "operator",
          "type": "address"
        },
        {
          "indexed": true,
          "internalType": "address",
          "name": "from",
          "type": "address"
        },
        {
          "indexed": true,
          "internalType": "address",
          "name": "to",
          "type": "address"
        },
        {
          "indexed": false,
          "internalType": "uint256",
          "name": "id",
          "type": "uint256"
        },
        {
          "indexed": false,
          "internalType": "uint256",
          "name": "value",
          "type": "uint256"
        }
      ],
      "name": "TransferSingle",
      "type": "event"
    },
    {
      "anonymous": false,
      "inputs": [
        {
          "indexed": false,
          "internalType": "string",
          "name": "value",
          "type": "string"
        },
        {
          "indexed": true,
          "internalType": "uint256",
          "name": "id",
          "type": "uint256"
        }
      ],
      "name": "URI",
      "type": "event"
    },
    {
      "inputs": [
        {
          "internalType": "address",
          "name": "account",
          "type": "address"
        },
        {
          "internalType": "uint256",
          "name": "id",
          "type": "uint256"
        }
      ],
      "name": "balanceOf",
      "outputs": [
        {
          "internalType": "uint256",
          "name": "",
          "type": "uint256"
        }
      ],
      "stateMutability": "view",
      "type": "function",
      "constant": true
    },
    {
      "inputs": [
        {
          "internalType": "address[]",
          "name": "accounts",
          "type": "address[]"
        },
        {
          "internalType": "uint256[]",
          "name": "ids",
          "type": "uint256[]"
        }
      ],
      "name": "balanceOfBatch",
      "outputs": [
        {
          "internalType": "uint256[]",
          "name": "",
          "type": "uint256[]"
        }
      ],
      "stateMutability": "view",
      "type": "function",
      "constant": true
    },
    {
      "inputs": [
        {
          "internalType": "address",
          "name": "account",
          "type": "address"
        },
        {
          "internalType": "address",
          "name": "operator",
          "type": "address"
        }
      ],
      "name": "isApprovedForAll",
      "outputs": [
        {
          "internalType": "bool",
          "name": "",
          "type": "bool"
        }
      ],
      "stateMutability": "view",
      "type": "function",
      "constant": true
    },
    {
      "inputs": [],
      "name": "owner",
      "outputs": [
        {
          "internalType": "address",
          "name": "",
          "type": "address"
        }
      ],
      "stateMutability": "view",
      "type": "function",
      "constant": true
    },
    {
      "inputs": [],
      "name": "renounceOwnership",
      "outputs": [],
      "stateMutability": "nonpayable",
      "type": "function"
    },
    {
      "inputs": [
        {
          "internalType": "address",
          "name": "from",
          "type": "address"
        },
        {
          "internalType": "address",
          "name": "to",
          "type": "address"
        },
        {
          "internalType": "uint256[]",
          "name": "ids",
          "type": "uint256[]"
        },
        {
          "internalType": "uint256[]",
          "name": "amounts",
          "type": "uint256[]"
        },
        {
          "internalType": "bytes",
          "name": "data",
          "type": "bytes"
        }
      ],
      "name": "safeBatchTransferFrom",
      "outputs": [],
      "stateMutability": "nonpayable",
      "type": "function"
    },
    {
      "inputs": [
        {
          "internalType": "address",
          "name": "from",
          "type": "address"
        },
        {
          "internalType": "address",
          "name": "to",
          "type": "address"
        },
        {
          "internalType": "uint256",
          "name": "id",
          "type": "uint256"
        },
        {
          "internalType": "uint256",
          "name": "amount",
          "type": "uint256"
        },
        {
          "internalType": "bytes",
          "name": "data",
          "type": "bytes"
        }
      ],
      "name": "safeTransferFrom",
      "outputs": [],
      "stateMutability": "nonpayable",
      "type": "function"
    },
    {
      "inputs": [
        {
          "internalType": "address",
          "name": "operator",
          "type": "address"
        },
        {
          "internalType": "bool",
          "name": "approved",
          "type": "bool"
        }
      ],
      "name": "setApprovalForAll",
      "outputs": [],
      "stateMutability": "nonpayable",
      "type": "function"
    },
    {
      "inputs": [
        {
          "internalType": "bytes4",
          "name": "interfaceId",
          "type": "bytes4"
        }
      ],
      "name": "supportsInterface",
      "outputs": [
        {
          "internalType": "bool",
          "name": "",
          "type": "bool"
        }
      ],
      "stateMutability": "view",
      "type": "function",
      "constant": true
    },
    {
      "inputs": [
        {
          "internalType": "address",
          "name": "newOwner",
          "type": "address"
        }
      ],
      "name": "transferOwnership",
      "outputs": [],
      "stateMutability": "nonpayable",
      "type": "function"
    },
    {
      "inputs": [
        {
          "internalType": "uint256",
          "name": "",
          "type": "uint256"
        }
      ],
      "name": "uri",
      "outputs": [
        {
          "internalType": "string",
          "name": "",
          "type": "string"
        }
      ],
      "stateMutability": "view",
      "type": "function",
      "constant": true
    },
    {
      "inputs": [
        {
          "internalType": "uint256",
          "name": "tokenId",
          "type": "uint256"
        }
      ],
      "name": "getSignature",
      "outputs": [
        {
          "internalType": "bytes32",
          "name": "",
          "type": "bytes32"
        }
      ],
      "stateMutability": "view",
      "type": "function",
      "constant": true
    },
    {
      "inputs": [
        {
          "internalType": "address",
          "name": "_tokenAddress",
          "type": "address"
        }
      ],
      "name": "settokenAddress",
      "outputs": [],
      "stateMutability": "nonpayable",
      "type": "function"
    },
    {
      "inputs": [
        {
          "internalType": "uint256",
          "name": "_id",
          "type": "uint256"
        },
        {
          "internalType": "uint256",
          "name": "_minPrice",
          "type": "uint256"
        }
      ],
      "name": "hash",
      "outputs": [
        {
          "internalType": "bytes32",
          "name": "",
          "type": "bytes32"
        }
      ],
      "stateMutability": "pure",
      "type": "function",
      "constant": true
    },
    {
      "inputs": [
        {
          "internalType": "address",
          "name": "redeemer",
          "type": "address"
        },
        {
          "internalType": "uint256",
          "name": "tokenId",
          "type": "uint256"
        },
        {
          "internalType": "uint256",
          "name": "minPrice",
          "type": "uint256"
        },
        {
          "internalType": "bytes32",
          "name": "signature",
          "type": "bytes32"
        }
      ],
      "name": "redeem",
      "outputs": [],
      "stateMutability": "payable",
      "type": "function",
      "payable": true
    }
  ],
  "bytecode": "0x60806040523480156200001157600080fd5b5060405180606001604052806022815260200162003b2d602291396200003d816200018b60201b60201c565b506200005e62000052620001a060201b60201c565b620001a860201b60201c565b6040518060600160405280600060ff168152602001600060ff168152602001600060ff16815250600590600362000097929190620002a3565b506040518060600160405280670de0b6b3a764000067ffffffffffffffff168152602001671bc16d674ec8000067ffffffffffffffff1681526020016729a2241af62c000067ffffffffffffffff168152506006906003620000fb929190620002fa565b5060005b600680549050811015620001845760006200014282600684815481106200012b576200012a62000377565b5b90600052602060002001546200026e60201b60201c565b905060048190806001815401808255809150506001900390600052602060002001600090919091909150555080806200017b90620003df565b915050620000ff565b50620007d8565b80600290816200019c91906200069c565b5050565b600033905090565b6000600360009054906101000a900473ffffffffffffffffffffffffffffffffffffffff16905081600360006101000a81548173ffffffffffffffffffffffffffffffffffffffff021916908373ffffffffffffffffffffffffffffffffffffffff1602179055508173ffffffffffffffffffffffffffffffffffffffff168173ffffffffffffffffffffffffffffffffffffffff167f8be0079c531659141344cd1fd0a4f28419497f9722a3daafe3b4186f6b6457e060405160405180910390a35050565b6000828260405160200162000285929190620007a8565b60405160208183030381529060405280519060200120905092915050565b828054828255906000526020600020908101928215620002e7579160200282015b82811115620002e6578251829060ff16905591602001919060010190620002c4565b5b509050620002f6919062000358565b5090565b82805482825590600052602060002090810192821562000345579160200282015b8281111562000344578251829067ffffffffffffffff169055916020019190600101906200031b565b5b50905062000354919062000358565b5090565b5b808211156200037357600081600090555060010162000359565b5090565b7f4e487b7100000000000000000000000000000000000000000000000000000000600052603260045260246000fd5b7f4e487b7100000000000000000000000000000000000000000000000000000000600052601160045260246000fd5b6000819050919050565b6000620003ec82620003d5565b91507fffffffffffffffffffffffffffffffffffffffffffffffffffffffffffffffff8203620004215762000420620003a6565b5b600182019050919050565b600081519050919050565b7f4e487b7100000000000000000000000000000000000000000000000000000000600052604160045260246000fd5b7f4e487b7100000000000000000000000000000000000000000000000000000000600052602260045260246000fd5b60006002820490506001821680620004ae57607f821691505b602082108103620004c457620004c362000466565b5b50919050565b60008190508160005260206000209050919050565b60006020601f8301049050919050565b600082821b905092915050565b6000600883026200052e7fffffffffffffffffffffffffffffffffffffffffffffffffffffffffffffffff82620004ef565b6200053a8683620004ef565b95508019841693508086168417925050509392505050565b6000819050919050565b60006200057d620005776200057184620003d5565b62000552565b620003d5565b9050919050565b6000819050919050565b62000599836200055c565b620005b1620005a88262000584565b848454620004fc565b825550505050565b600090565b620005c8620005b9565b620005d58184846200058e565b505050565b5b81811015620005fd57620005f1600082620005be565b600181019050620005db565b5050565b601f8211156200064c576200061681620004ca565b6200062184620004df565b8101602085101562000631578190505b620006496200064085620004df565b830182620005da565b50505b505050565b600082821c905092915050565b6000620006716000198460080262000651565b1980831691505092915050565b60006200068c83836200065e565b9150826002028217905092915050565b620006a7826200042c565b67ffffffffffffffff811115620006c357620006c262000437565b5b620006cf825462000495565b620006dc82828562000601565b600060209050601f831160018114620007145760008415620006ff578287015190505b6200070b85826200067e565b8655506200077b565b601f1984166200072486620004ca565b60005b828110156200074e5784890151825560018201915060208501945060208101905062000727565b868310156200076e57848901516200076a601f8916826200065e565b8355505b6001600288020188555050505b505050505050565b6000819050919050565b620007a26200079c82620003d5565b62000783565b82525050565b6000620007b682856200078d565b602082019150620007c882846200078d565b6020820191508190509392505050565b61334580620007e86000396000f3fe6080604052600436106100e75760003560e01c80638da5cb5b1161008a578063dc3012ef11610059578063dc3012ef14610317578063e985e9c514610333578063f242432a14610370578063f2fde38b14610399576100e7565b80638da5cb5b1461025d578063a22cb46514610288578063a78dac0d146102b1578063ae13b7ad146102ee576100e7565b80630e89341c116100c65780630e89341c146101a35780632eb2c2d6146101e05780634e1273f414610209578063715018a614610246576100e7565b8062fdd58e146100ec57806301ffc9a71461012957806302a569e614610166575b600080fd5b3480156100f857600080fd5b50610113600480360381019061010e9190611ce1565b6103c2565b6040516101209190611d30565b60405180910390f35b34801561013557600080fd5b50610150600480360381019061014b9190611da3565b61048a565b60405161015d9190611deb565b60405180910390f35b34801561017257600080fd5b5061018d60048036038101906101889190611e06565b61056c565b60405161019a9190611e4c565b60405180910390f35b3480156101af57600080fd5b506101ca60048036038101906101c59190611e06565b610630565b6040516101d79190611ef7565b60405180910390f35b3480156101ec57600080fd5b5061020760048036038101906102029190612116565b6106c4565b005b34801561021557600080fd5b50610230600480360381019061022b91906122a8565b610765565b60405161023d91906123de565b60405180910390f35b34801561025257600080fd5b5061025b61087e565b005b34801561026957600080fd5b50610272610892565b60405161027f919061240f565b60405180910390f35b34801561029457600080fd5b506102af60048036038101906102aa9190612456565b6108bc565b005b3480156102bd57600080fd5b506102d860048036038101906102d39190612496565b6108d2565b6040516102e59190611e4c565b60405180910390f35b3480156102fa57600080fd5b50610315600480360381019061031091906124d6565b610905565b005b610331600480360381019061032c919061252f565b610951565b005b34801561033f57600080fd5b5061035a60048036038101906103559190612596565b610b98565b6040516103679190611deb565b60405180910390f35b34801561037c57600080fd5b50610397600480360381019061039291906125d6565b610c2c565b005b3480156103a557600080fd5b506103c060048036038101906103bb91906124d6565b610ccd565b005b60008073ffffffffffffffffffffffffffffffffffffffff168373ffffffffffffffffffffffffffffffffffffffff1603610432576040517f08c379a0000000000000000000000000000000000000000000000000000000008152600401610429906126df565b60405180910390fd5b60008083815260200190815260200160002060008473ffffffffffffffffffffffffffffffffffffffff1673ffffffffffffffffffffffffffffffffffffffff16815260200190815260200160002054905092915050565b60007fd9b67a26000000000000000000000000000000000000000000000000000000007bffffffffffffffffffffffffffffffffffffffffffffffffffffffff1916827bffffffffffffffffffffffffffffffffffffffffffffffffffffffff1916148061055557507f0e89341c000000000000000000000000000000000000000000000000000000007bffffffffffffffffffffffffffffffffffffffffffffffffffffffff1916827bffffffffffffffffffffffffffffffffffffffffffffffffffffffff1916145b80610565575061056482610d50565b5b9050919050565b60008082116105b0576040517f08c379a00000000000000000000000000000000000000000000000000000000081526004016105a79061274b565b60405180910390fd5b6006805490508211156105f8576040517f08c379a00000000000000000000000000000000000000000000000000000000081526004016105ef9061274b565b60405180910390fd5b6000600183610607919061279a565b90506004818154811061061d5761061c6127ce565b5b9060005260206000200154915050919050565b60606002805461063f9061282c565b80601f016020809104026020016040519081016040528092919081815260200182805461066b9061282c565b80156106b85780601f1061068d576101008083540402835291602001916106b8565b820191906000526020600020905b81548152906001019060200180831161069b57829003601f168201915b50505050509050919050565b6106cc610dba565b73ffffffffffffffffffffffffffffffffffffffff168573ffffffffffffffffffffffffffffffffffffffff16148061071257506107118561070c610dba565b610b98565b5b610751576040517f08c379a0000000000000000000000000000000000000000000000000000000008152600401610748906128cf565b60405180910390fd5b61075e8585858585610dc2565b5050505050565b606081518351146107ab576040517f08c379a00000000000000000000000000000000000000000000000000000000081526004016107a290612961565b60405180910390fd5b6000835167ffffffffffffffff8111156107c8576107c7611f1e565b5b6040519080825280602002602001820160405280156107f65781602001602082028036833780820191505090505b50905060005b84518110156108735761084385828151811061081b5761081a6127ce565b5b6020026020010151858381518110610836576108356127ce565b5b60200260200101516103c2565b828281518110610856576108556127ce565b5b6020026020010181815250508061086c90612981565b90506107fc565b508091505092915050565b6108866110e3565b6108906000611161565b565b6000600360009054906101000a900473ffffffffffffffffffffffffffffffffffffffff16905090565b6108ce6108c7610dba565b8383611227565b5050565b600082826040516020016108e79291906129ea565b60405160208183030381529060405280519060200120905092915050565b61090d6110e3565b80600760006101000a81548173ffffffffffffffffffffffffffffffffffffffff021916908373ffffffffffffffffffffffffffffffffffffffff16021790555050565b60008311610994576040517f08c379a000000000000000000000000000000000000000000000000000000000815260040161098b9061274b565b60405180910390fd5b6006805490508311156109dc576040517f08c379a00000000000000000000000000000000000000000000000000000000081526004016109d39061274b565b60405180910390fd5b60006001846109eb919061279a565b905060048181548110610a0157610a006127ce565b5b90600052602060002001548214610a4d576040517f08c379a0000000000000000000000000000000000000000000000000000000008152600401610a4490612a62565b60405180910390fd5b600060058281548110610a6357610a626127ce565b5b906000526020600020015414610aae576040517f08c379a0000000000000000000000000000000000000000000000000000000008152600401610aa590612ace565b60405180910390fd5b600760009054906101000a900473ffffffffffffffffffffffffffffffffffffffff1673ffffffffffffffffffffffffffffffffffffffff166323b872dd3330866040518463ffffffff1660e01b8152600401610b0d93929190612aee565b6020604051808303816000875af1158015610b2c573d6000803e3d6000fd5b505050506040513d601f19601f82011682018060405250810190610b509190612b3a565b50610b6d8585600160405180602001604052806000815250611393565b600160058281548110610b8357610b826127ce565b5b90600052602060002001819055505050505050565b6000600160008473ffffffffffffffffffffffffffffffffffffffff1673ffffffffffffffffffffffffffffffffffffffff16815260200190815260200160002060008373ffffffffffffffffffffffffffffffffffffffff1673ffffffffffffffffffffffffffffffffffffffff16815260200190815260200160002060009054906101000a900460ff16905092915050565b610c34610dba565b73ffffffffffffffffffffffffffffffffffffffff168573ffffffffffffffffffffffffffffffffffffffff161480610c7a5750610c7985610c74610dba565b610b98565b5b610cb9576040517f08c379a0000000000000000000000000000000000000000000000000000000008152600401610cb0906128cf565b60405180910390fd5b610cc68585858585611543565b5050505050565b610cd56110e3565b600073ffffffffffffffffffffffffffffffffffffffff168173ffffffffffffffffffffffffffffffffffffffff1603610d44576040517f08c379a0000000000000000000000000000000000000000000000000000000008152600401610d3b90612bd9565b60405180910390fd5b610d4d81611161565b50565b60007f01ffc9a7000000000000000000000000000000000000000000000000000000007bffffffffffffffffffffffffffffffffffffffffffffffffffffffff1916827bffffffffffffffffffffffffffffffffffffffffffffffffffffffff1916149050919050565b600033905090565b8151835114610e06576040517f08c379a0000000000000000000000000000000000000000000000000000000008152600401610dfd90612c6b565b60405180910390fd5b600073ffffffffffffffffffffffffffffffffffffffff168473ffffffffffffffffffffffffffffffffffffffff1603610e75576040517f08c379a0000000000000000000000000000000000000000000000000000000008152600401610e6c90612cfd565b60405180910390fd5b6000610e7f610dba565b9050610e8f8187878787876117de565b60005b8451811015611040576000858281518110610eb057610eaf6127ce565b5b602002602001015190506000858381518110610ecf57610ece6127ce565b5b60200260200101519050600080600084815260200190815260200160002060008b73ffffffffffffffffffffffffffffffffffffffff1673ffffffffffffffffffffffffffffffffffffffff16815260200190815260200160002054905081811015610f70576040517f08c379a0000000000000000000000000000000000000000000000000000000008152600401610f6790612d8f565b60405180910390fd5b81810360008085815260200190815260200160002060008c73ffffffffffffffffffffffffffffffffffffffff1673ffffffffffffffffffffffffffffffffffffffff168152602001908152602001600020819055508160008085815260200190815260200160002060008b73ffffffffffffffffffffffffffffffffffffffff1673ffffffffffffffffffffffffffffffffffffffff16815260200190815260200160002060008282546110259190612daf565b925050819055505050508061103990612981565b9050610e92565b508473ffffffffffffffffffffffffffffffffffffffff168673ffffffffffffffffffffffffffffffffffffffff168273ffffffffffffffffffffffffffffffffffffffff167f4a39dc06d4c0dbc64b70af90fd698a233a518aa5d07e595d983b8c0526c8f7fb87876040516110b7929190612de3565b60405180910390a46110cd8187878787876117e6565b6110db8187878787876117ee565b505050505050565b6110eb610dba565b73ffffffffffffffffffffffffffffffffffffffff16611109610892565b73ffffffffffffffffffffffffffffffffffffffff161461115f576040517f08c379a000000000000000000000000000000000000000000000000000000000815260040161115690612e66565b60405180910390fd5b565b6000600360009054906101000a900473ffffffffffffffffffffffffffffffffffffffff16905081600360006101000a81548173ffffffffffffffffffffffffffffffffffffffff021916908373ffffffffffffffffffffffffffffffffffffffff1602179055508173ffffffffffffffffffffffffffffffffffffffff168173ffffffffffffffffffffffffffffffffffffffff167f8be0079c531659141344cd1fd0a4f28419497f9722a3daafe3b4186f6b6457e060405160405180910390a35050565b8173ffffffffffffffffffffffffffffffffffffffff168373ffffffffffffffffffffffffffffffffffffffff1603611295576040517f08c379a000000000000000000000000000000000000000000000000000000000815260040161128c90612ef8565b60405180910390fd5b80600160008573ffffffffffffffffffffffffffffffffffffffff1673ffffffffffffffffffffffffffffffffffffffff16815260200190815260200160002060008473ffffffffffffffffffffffffffffffffffffffff1673ffffffffffffffffffffffffffffffffffffffff16815260200190815260200160002060006101000a81548160ff0219169083151502179055508173ffffffffffffffffffffffffffffffffffffffff168373ffffffffffffffffffffffffffffffffffffffff167f17307eab39ab6107e8899845ad3d59bd9653f200f220920489ca2b5937696c31836040516113869190611deb565b60405180910390a3505050565b600073ffffffffffffffffffffffffffffffffffffffff168473ffffffffffffffffffffffffffffffffffffffff1603611402576040517f08c379a00000000000000000000000000000000000000000000000000000000081526004016113f990612f8a565b60405180910390fd5b600061140c610dba565b90506000611419856119c5565b90506000611426856119c5565b9050611437836000898585896117de565b8460008088815260200190815260200160002060008973ffffffffffffffffffffffffffffffffffffffff1673ffffffffffffffffffffffffffffffffffffffff16815260200190815260200160002060008282546114969190612daf565b925050819055508673ffffffffffffffffffffffffffffffffffffffff16600073ffffffffffffffffffffffffffffffffffffffff168473ffffffffffffffffffffffffffffffffffffffff167fc3d58168c5ae7397731d063d5bbf3d657854427343f4c083240f7aacaa2d0f628989604051611514929190612faa565b60405180910390a461152b836000898585896117e6565b61153a83600089898989611a3f565b50505050505050565b600073ffffffffffffffffffffffffffffffffffffffff168473ffffffffffffffffffffffffffffffffffffffff16036115b2576040517f08c379a00000000000000000000000000000000000000000000000000000000081526004016115a990612cfd565b60405180910390fd5b60006115bc610dba565b905060006115c9856119c5565b905060006115d6856119c5565b90506115e68389898585896117de565b600080600088815260200190815260200160002060008a73ffffffffffffffffffffffffffffffffffffffff1673ffffffffffffffffffffffffffffffffffffffff1681526020019081526020016000205490508581101561167d576040517f08c379a000000000000000000000000000000000000000000000000000000000815260040161167490612d8f565b60405180910390fd5b85810360008089815260200190815260200160002060008b73ffffffffffffffffffffffffffffffffffffffff1673ffffffffffffffffffffffffffffffffffffffff168152602001908152602001600020819055508560008089815260200190815260200160002060008a73ffffffffffffffffffffffffffffffffffffffff1673ffffffffffffffffffffffffffffffffffffffff16815260200190815260200160002060008282546117329190612daf565b925050819055508773ffffffffffffffffffffffffffffffffffffffff168973ffffffffffffffffffffffffffffffffffffffff168573ffffffffffffffffffffffffffffffffffffffff167fc3d58168c5ae7397731d063d5bbf3d657854427343f4c083240f7aacaa2d0f628a8a6040516117af929190612faa565b60405180910390a46117c5848a8a86868a6117e6565b6117d3848a8a8a8a8a611a3f565b505050505050505050565b505050505050565b505050505050565b61180d8473ffffffffffffffffffffffffffffffffffffffff16611c16565b156119bd578373ffffffffffffffffffffffffffffffffffffffff1663bc197c8187878686866040518663ffffffff1660e01b8152600401611853959493929190613028565b6020604051808303816000875af192505050801561188f57506040513d601f19601f8201168201806040525081019061188c91906130a5565b60015b6119345761189b6130df565b806308c379a0036118f757506118af613101565b806118ba57506118f9565b806040517f08c379a00000000000000000000000000000000000000000000000000000000081526004016118ee9190611ef7565b60405180910390fd5b505b6040517f08c379a000000000000000000000000000000000000000000000000000000000815260040161192b90613203565b60405180910390fd5b63bc197c8160e01b7bffffffffffffffffffffffffffffffffffffffffffffffffffffffff1916817bffffffffffffffffffffffffffffffffffffffffffffffffffffffff1916146119bb576040517f08c379a00000000000000000000000000000000000000000000000000000000081526004016119b290613295565b60405180910390fd5b505b505050505050565b60606000600167ffffffffffffffff8111156119e4576119e3611f1e565b5b604051908082528060200260200182016040528015611a125781602001602082028036833780820191505090505b5090508281600081518110611a2a57611a296127ce565b5b60200260200101818152505080915050919050565b611a5e8473ffffffffffffffffffffffffffffffffffffffff16611c16565b15611c0e578373ffffffffffffffffffffffffffffffffffffffff1663f23a6e6187878686866040518663ffffffff1660e01b8152600401611aa49594939291906132b5565b6020604051808303816000875af1925050508015611ae057506040513d601f19601f82011682018060405250810190611add91906130a5565b60015b611b8557611aec6130df565b806308c379a003611b485750611b00613101565b80611b0b5750611b4a565b806040517f08c379a0000000000000000000000000000000000000000000000000000000008152600401611b3f9190611ef7565b60405180910390fd5b505b6040517f08c379a0000000000000000000000000000000000000000000000000000000008152600401611b7c90613203565b60405180910390fd5b63f23a6e6160e01b7bffffffffffffffffffffffffffffffffffffffffffffffffffffffff1916817bffffffffffffffffffffffffffffffffffffffffffffffffffffffff191614611c0c576040517f08c379a0000000000000000000000000000000000000000000000000000000008152600401611c0390613295565b60405180910390fd5b505b505050505050565b6000808273ffffffffffffffffffffffffffffffffffffffff163b119050919050565b6000604051905090565b600080fd5b600080fd5b600073ffffffffffffffffffffffffffffffffffffffff82169050919050565b6000611c7882611c4d565b9050919050565b611c8881611c6d565b8114611c9357600080fd5b50565b600081359050611ca581611c7f565b92915050565b6000819050919050565b611cbe81611cab565b8114611cc957600080fd5b50565b600081359050611cdb81611cb5565b92915050565b60008060408385031215611cf857611cf7611c43565b5b6000611d0685828601611c96565b9250506020611d1785828601611ccc565b9150509250929050565b611d2a81611cab565b82525050565b6000602082019050611d456000830184611d21565b92915050565b60007fffffffff0000000000000000000000000000000000000000000000000000000082169050919050565b611d8081611d4b565b8114611d8b57600080fd5b50565b600081359050611d9d81611d77565b92915050565b600060208284031215611db957611db8611c43565b5b6000611dc784828501611d8e565b91505092915050565b60008115159050919050565b611de581611dd0565b82525050565b6000602082019050611e006000830184611ddc565b92915050565b600060208284031215611e1c57611e1b611c43565b5b6000611e2a84828501611ccc565b91505092915050565b6000819050919050565b611e4681611e33565b82525050565b6000602082019050611e616000830184611e3d565b92915050565b600081519050919050565b600082825260208201905092915050565b60005b83811015611ea1578082015181840152602081019050611e86565b60008484015250505050565b6000601f19601f8301169050919050565b6000611ec982611e67565b611ed38185611e72565b9350611ee3818560208601611e83565b611eec81611ead565b840191505092915050565b60006020820190508181036000830152611f118184611ebe565b905092915050565b600080fd5b7f4e487b7100000000000000000000000000000000000000000000000000000000600052604160045260246000fd5b611f5682611ead565b810181811067ffffffffffffffff82111715611f7557611f74611f1e565b5b80604052505050565b6000611f88611c39565b9050611f948282611f4d565b919050565b600067ffffffffffffffff821115611fb457611fb3611f1e565b5b602082029050602081019050919050565b600080fd5b6000611fdd611fd884611f99565b611f7e565b9050808382526020820190506020840283018581111561200057611fff611fc5565b5b835b8181101561202957806120158882611ccc565b845260208401935050602081019050612002565b5050509392505050565b600082601f83011261204857612047611f19565b5b8135612058848260208601611fca565b91505092915050565b600080fd5b600067ffffffffffffffff82111561208157612080611f1e565b5b61208a82611ead565b9050602081019050919050565b82818337600083830152505050565b60006120b96120b484612066565b611f7e565b9050828152602081018484840111156120d5576120d4612061565b5b6120e0848285612097565b509392505050565b600082601f8301126120fd576120fc611f19565b5b813561210d8482602086016120a6565b91505092915050565b600080600080600060a0868803121561213257612131611c43565b5b600061214088828901611c96565b955050602061215188828901611c96565b945050604086013567ffffffffffffffff81111561217257612171611c48565b5b61217e88828901612033565b935050606086013567ffffffffffffffff81111561219f5761219e611c48565b5b6121ab88828901612033565b925050608086013567ffffffffffffffff8111156121cc576121cb611c48565b5b6121d8888289016120e8565b9150509295509295909350565b600067ffffffffffffffff821115612200576121ff611f1e565b5b602082029050602081019050919050565b600061222461221f846121e5565b611f7e565b9050808382526020820190506020840283018581111561224757612246611fc5565b5b835b81811015612270578061225c8882611c96565b845260208401935050602081019050612249565b5050509392505050565b600082601f83011261228f5761228e611f19565b5b813561229f848260208601612211565b91505092915050565b600080604083850312156122bf576122be611c43565b5b600083013567ffffffffffffffff8111156122dd576122dc611c48565b5b6122e98582860161227a565b925050602083013567ffffffffffffffff81111561230a57612309611c48565b5b61231685828601612033565b9150509250929050565b600081519050919050565b600082825260208201905092915050565b6000819050602082019050919050565b61235581611cab565b82525050565b6000612367838361234c565b60208301905092915050565b6000602082019050919050565b600061238b82612320565b612395818561232b565b93506123a08361233c565b8060005b838110156123d15781516123b8888261235b565b97506123c383612373565b9250506001810190506123a4565b5085935050505092915050565b600060208201905081810360008301526123f88184612380565b905092915050565b61240981611c6d565b82525050565b60006020820190506124246000830184612400565b92915050565b61243381611dd0565b811461243e57600080fd5b50565b6000813590506124508161242a565b92915050565b6000806040838503121561246d5761246c611c43565b5b600061247b85828601611c96565b925050602061248c85828601612441565b9150509250929050565b600080604083850312156124ad576124ac611c43565b5b60006124bb85828601611ccc565b92505060206124cc85828601611ccc565b9150509250929050565b6000602082840312156124ec576124eb611c43565b5b60006124fa84828501611c96565b91505092915050565b61250c81611e33565b811461251757600080fd5b50565b60008135905061252981612503565b92915050565b6000806000806080858703121561254957612548611c43565b5b600061255787828801611c96565b945050602061256887828801611ccc565b935050604061257987828801611ccc565b925050606061258a8782880161251a565b91505092959194509250565b600080604083850312156125ad576125ac611c43565b5b60006125bb85828601611c96565b92505060206125cc85828601611c96565b9150509250929050565b600080600080600060a086880312156125f2576125f1611c43565b5b600061260088828901611c96565b955050602061261188828901611c96565b945050604061262288828901611ccc565b935050606061263388828901611ccc565b925050608086013567ffffffffffffffff81111561265457612653611c48565b5b612660888289016120e8565b9150509295509295909350565b7f455243313135353a2061646472657373207a65726f206973206e6f742061207660008201527f616c6964206f776e657200000000000000000000000000000000000000000000602082015250565b60006126c9602a83611e72565b91506126d48261266d565b604082019050919050565b600060208201905081810360008301526126f8816126bc565b9050919050565b7f4e465420646f65736e27742065786973742e0000000000000000000000000000600082015250565b6000612735601283611e72565b9150612740826126ff565b602082019050919050565b6000602082019050818103600083015261276481612728565b9050919050565b7f4e487b7100000000000000000000000000000000000000000000000000000000600052601160045260246000fd5b60006127a582611cab565b91506127b083611cab565b92508282039050818111156127c8576127c761276b565b5b92915050565b7f4e487b7100000000000000000000000000000000000000000000000000000000600052603260045260246000fd5b7f4e487b7100000000000000000000000000000000000000000000000000000000600052602260045260246000fd5b6000600282049050600182168061284457607f821691505b602082108103612857576128566127fd565b5b50919050565b7f455243313135353a2063616c6c6572206973206e6f7420746f6b656e206f776e60008201527f6572206e6f7220617070726f7665640000000000000000000000000000000000602082015250565b60006128b9602f83611e72565b91506128c48261285d565b604082019050919050565b600060208201905081810360008301526128e8816128ac565b9050919050565b7f455243313135353a206163636f756e747320616e6420696473206c656e67746860008201527f206d69736d617463680000000000000000000000000000000000000000000000602082015250565b600061294b602983611e72565b9150612956826128ef565b604082019050919050565b6000602082019050818103600083015261297a8161293e565b9050919050565b600061298c82611cab565b91507fffffffffffffffffffffffffffffffffffffffffffffffffffffffffffffffff82036129be576129bd61276b565b5b600182019050919050565b6000819050919050565b6129e46129df82611cab565b6129c9565b82525050565b60006129f682856129d3565b602082019150612a0682846129d3565b6020820191508190509392505050565b7f57726f6e67207369676e61747572652100000000000000000000000000000000600082015250565b6000612a4c601083611e72565b9150612a5782612a16565b602082019050919050565b60006020820190508181036000830152612a7b81612a3f565b9050919050565b7f4e6f7420617661696c61626c6520616e796d6f72652100000000000000000000600082015250565b6000612ab8601683611e72565b9150612ac382612a82565b602082019050919050565b60006020820190508181036000830152612ae781612aab565b9050919050565b6000606082019050612b036000830186612400565b612b106020830185612400565b612b1d6040830184611d21565b949350505050565b600081519050612b348161242a565b92915050565b600060208284031215612b5057612b4f611c43565b5b6000612b5e84828501612b25565b91505092915050565b7f4f776e61626c653a206e6577206f776e657220697320746865207a65726f206160008201527f6464726573730000000000000000000000000000000000000000000000000000602082015250565b6000612bc3602683611e72565b9150612bce82612b67565b604082019050919050565b60006020820190508181036000830152612bf281612bb6565b9050919050565b7f455243313135353a2069647320616e6420616d6f756e7473206c656e6774682060008201527f6d69736d61746368000000000000000000000000000000000000000000000000602082015250565b6000612c55602883611e72565b9150612c6082612bf9565b604082019050919050565b60006020820190508181036000830152612c8481612c48565b9050919050565b7f455243313135353a207472616e7366657220746f20746865207a65726f20616460008201527f6472657373000000000000000000000000000000000000000000000000000000602082015250565b6000612ce7602583611e72565b9150612cf282612c8b565b604082019050919050565b60006020820190508181036000830152612d1681612cda565b9050919050565b7f455243313135353a20696e73756666696369656e742062616c616e636520666f60008201527f72207472616e7366657200000000000000000000000000000000000000000000602082015250565b6000612d79602a83611e72565b9150612d8482612d1d565b604082019050919050565b60006020820190508181036000830152612da881612d6c565b9050919050565b6000612dba82611cab565b9150612dc583611cab565b9250828201905080821115612ddd57612ddc61276b565b5b92915050565b60006040820190508181036000830152612dfd8185612380565b90508181036020830152612e118184612380565b90509392505050565b7f4f776e61626c653a2063616c6c6572206973206e6f7420746865206f776e6572600082015250565b6000612e50602083611e72565b9150612e5b82612e1a565b602082019050919050565b60006020820190508181036000830152612e7f81612e43565b9050919050565b7f455243313135353a2073657474696e6720617070726f76616c2073746174757360008201527f20666f722073656c660000000000000000000000000000000000000000000000602082015250565b6000612ee2602983611e72565b9150612eed82612e86565b604082019050919050565b60006020820190508181036000830152612f1181612ed5565b9050919050565b7f455243313135353a206d696e7420746f20746865207a65726f2061646472657360008201527f7300000000000000000000000000000000000000000000000000000000000000602082015250565b6000612f74602183611e72565b9150612f7f82612f18565b604082019050919050565b60006020820190508181036000830152612fa381612f67565b9050919050565b6000604082019050612fbf6000830185611d21565b612fcc6020830184611d21565b9392505050565b600081519050919050565b600082825260208201905092915050565b6000612ffa82612fd3565b6130048185612fde565b9350613014818560208601611e83565b61301d81611ead565b840191505092915050565b600060a08201905061303d6000830188612400565b61304a6020830187612400565b818103604083015261305c8186612380565b905081810360608301526130708185612380565b905081810360808301526130848184612fef565b90509695505050505050565b60008151905061309f81611d77565b92915050565b6000602082840312156130bb576130ba611c43565b5b60006130c984828501613090565b91505092915050565b60008160e01c9050919050565b600060033d11156130fe5760046000803e6130fb6000516130d2565b90505b90565b600060443d1061318e57613113611c39565b60043d036004823e80513d602482011167ffffffffffffffff8211171561313b57505061318e565b808201805167ffffffffffffffff811115613159575050505061318e565b80602083010160043d03850181111561317657505050505061318e565b61318582602001850186611f4d565b82955050505050505b90565b7f455243313135353a207472616e7366657220746f206e6f6e204552433131353560008201527f526563656976657220696d706c656d656e746572000000000000000000000000602082015250565b60006131ed603483611e72565b91506131f882613191565b604082019050919050565b6000602082019050818103600083015261321c816131e0565b9050919050565b7f455243313135353a204552433131353552656365697665722072656a6563746560008201527f6420746f6b656e73000000000000000000000000000000000000000000000000602082015250565b600061327f602883611e72565b915061328a82613223565b604082019050919050565b600060208201905081810360008301526132ae81613272565b9050919050565b600060a0820190506132ca6000830188612400565b6132d76020830187612400565b6132e46040830186611d21565b6132f16060830185611d21565b81810360808301526133038184612fef565b9050969550505050505056fea2646970667358221220c9422cbba5522659d1f4d33567a04836299d899c2a03a7791f86c1225554456d64736f6c6343000810003368747470733a2f2f67616d652e6578616d706c652f6170692f6974656d2f7b69647d",
  "immutableReferences": {},
  "source": "// SPDX-License-Identifier: MIT\npragma solidity ^0.8.4;\n\nimport \"@openzeppelin/contracts/token/ERC1155/ERC1155.sol\";\nimport \"@openzeppelin/contracts/access/Ownable.sol\";\nimport \"@openzeppelin/contracts/token/ERC20/IERC20.sol\";\n\ncontract MyNFT is ERC1155, Ownable {\n\n    struct NFTVoucher { \n    uint256 tokenId;   // The token id to be redeemed\n    uint256 minPrice;  // The min price the caller has to pay in order to redeem\n    bytes signature;  // The typed signature generated beforehand\n} \n\n    bytes32[] signatures;\n    uint256[] redeemed;\n    uint256[] minPrices;\n    IERC20 tokenAddress;\n\n    // the base uri comes from tutorial of openzepplin\n    constructor() ERC1155(\"https://game.example/api/item/{id}\") {\n        redeemed = [0, 0, 0];\n        minPrices = [1 ether, 2 ether, 3 ether];\n\n        // generate signatures when init\n        for (uint i = 0; i < minPrices.length; i++) {\n            bytes32 h = hash(i, minPrices[i]);\n            signatures.push(h);\n        }\n    }\n\n    function getSignature(uint256 tokenId) public view returns (bytes32) {\n        require(tokenId > 0, \"NFT doesn't exist.\");\n        require(tokenId <= minPrices.length, \"NFT doesn't exist.\");\n        uint256 index = tokenId - 1;\n        return signatures[index];\n    }\n\n    function settokenAddress(address _tokenAddress) public onlyOwner {\n        tokenAddress = IERC20(_tokenAddress);\n    }\n\n    function hash(uint256 _id, uint256 _minPrice) public pure returns (bytes32) {\n        return keccak256(abi.encodePacked(_id, _minPrice));\n    }\n\n    // for testing in remix more conveniently, I divide the NFTVoucher XD\n    function redeem(address redeemer, uint256 tokenId, uint256 minPrice, bytes32 signature)\n        public\n        payable\n    {\n        require(tokenId > 0, \"NFT doesn't exist.\");\n        require(tokenId <= minPrices.length, \"NFT doesn't exist.\");\n\n        uint index = tokenId - 1;\n        require(signature == signatures[index], \"Wrong signature!\");\n        require(redeemed[index] == 0, \"Not available anymore!\");\n        tokenAddress.transferFrom(msg.sender, address(this), minPrice);\n        \n        _mint(redeemer, tokenId, 1, \"\");\n        redeemed[index] = 1;\n    }\n\n    \n}\n/*\n    bonus: support multi erc-20 payment\n\n    do following adjustment in code\n\n    IERC20[] public allowedToken;\n    mapping(IERC20 => bool) public exists;\n\n    function addCurrency(address _paytoken) public onlyOwner {\n        IERC20 paytoken = IERC20(_paytoken);\n        allowedToken.push(paytoken);\n        exists[paytoken] = true;\n    }\n\n    function redeem(address redeemer, NFTVoucher calldata voucher, IERC20 paytoken)\n        public\n        payable\n    {\n        require(exists[paytoken] == true, \"Invalid token to pay\");\n        \n        _;\n    }\n\n*/",
  "sourcePath": "/Users/linzhiyun/Desktop/blockchain_projects/my-test/contracts/MyNFT.sol",
  "compiler": {
    "name": "solc",
    "version": "0.8.16+commit.07a7930e.Emscripten.clang"
  },
  "schemaVersion": "3.4.9",
  "updatedAt": "2022-08-24T03:45:26.414Z",
  "networkType": "ethereum",
  "devdoc": {
    "kind": "dev",
    "methods": {
      "balanceOf(address,uint256)": {
        "details": "See {IERC1155-balanceOf}. Requirements: - `account` cannot be the zero address."
      },
      "balanceOfBatch(address[],uint256[])": {
        "details": "See {IERC1155-balanceOfBatch}. Requirements: - `accounts` and `ids` must have the same length."
      },
      "isApprovedForAll(address,address)": {
        "details": "See {IERC1155-isApprovedForAll}."
      },
      "owner()": {
        "details": "Returns the address of the current owner."
      },
      "renounceOwnership()": {
        "details": "Leaves the contract without owner. It will not be possible to call `onlyOwner` functions anymore. Can only be called by the current owner. NOTE: Renouncing ownership will leave the contract without an owner, thereby removing any functionality that is only available to the owner."
      },
      "safeBatchTransferFrom(address,address,uint256[],uint256[],bytes)": {
        "details": "See {IERC1155-safeBatchTransferFrom}."
      },
      "safeTransferFrom(address,address,uint256,uint256,bytes)": {
        "details": "See {IERC1155-safeTransferFrom}."
      },
      "setApprovalForAll(address,bool)": {
        "details": "See {IERC1155-setApprovalForAll}."
      },
      "supportsInterface(bytes4)": {
        "details": "See {IERC165-supportsInterface}."
      },
      "transferOwnership(address)": {
        "details": "Transfers ownership of the contract to a new account (`newOwner`). Can only be called by the current owner."
      },
      "uri(uint256)": {
        "details": "See {IERC1155MetadataURI-uri}. This implementation returns the same URI for *all* token types. It relies on the token type ID substitution mechanism https://eips.ethereum.org/EIPS/eip-1155#metadata[defined in the EIP]. Clients calling this function must replace the `\\{id\\}` substring with the actual token type ID."
      }
    },
    "version": 1
  },
  "userdoc": {
    "kind": "user",
    "methods": {},
    "version": 1
  }
}